:0C0000000C9458000C94EB000C9431019F
:10000C000C9460010C9400000C9400000C94000003
:10001C000C9400000C9400000C9485000C940000CF
:10002C000C9400000C9400000C9400000C94000044
:10003C000C9400000C9400000C9400000C94000034
:10004C000C9400000C9400001027E80364000A00D4
:10005C000100001000011000010000000000000071
:10006C0000000000636C6F636B0000000000616CAB
:10007C0061726D000000000074696D65720025648A
:10008C0025643A256425643A25642564000080C003
:10009C000A00040066001900680270000200B20237
:1000AC009A000000F894EE27ECBBF1E0FBBFEBBF2D
:1000BC00E5BF8DE0A2E0BB27ED938A95E9F780E0E0
:1000CC0098E0A0E6ED930197E9F7ECE9F0E0859173
:1000DC009591009761F0A591B59105901590BF0190
:1000EC00F00105900D920197E1F7FB01F0CFEFE5E0
:1000FC00EDBFE8E0EEBFC0E6D2E00C94A8010E9490
:10010C00B004EEECEDBDEFEFECBDF40131964F0118
:10011C00ECE3F0E08E169F0654F0882499240E949C
:10012C00BE042CF00E94C60414F0442455240E94F2
:10013C00D00411F40E94D6040E94DD04129709F039
:10014C0042C0E0916602F09167023196E09366023C
:10015C00F0936702A0916602B0916702DC9714F1EC
:10016C00E0E0E0936602E0936702E0916402F091B4
:10017C0065023196E0936402F0936502A0916402EB
:10018C00B0916502DC9774F0E0E0E0936402E093D8
:10019C006502E0916202F09163023196E093620293
:1001AC00F0936302E0916202F0916302FA93EA9396
:1001BC00E0916402F0916502FA93EA93A0916602D1
:1001CC00B0916702F9D039D1AFC00E94B0040E943F
:1001DC00DD04119749F50E94E204A8E8B2E0EE0FA5
:1001EC00FF1FEA0FFB1FA082B1820E94E204ACE960
:1001FC00B2E0EE0FFF1FEA0FFB1FC082D1820E94FC
:10020C00E2043196E093B002F093B102E0E0E093A7
:10021C006202E0936302E0936402E0936502E09370
:10022C006602E093670209C00E94D00431F45201C7
:10023C00630180926002909261020E94DD0411962B
:10024C00E3E0F0E00E947705E0938602F0938702EA
:10025C000E94D60469C00E94B0040E94D00471F4BC
:10026C000E94BE042CF00E94C60414F044245524B1
:10027C005A924A927A926A92D4011AC00E94DD0470
:10028C001197B9F4F60131966F01ECE3F0E0CE165C
:10029C00DF0664F0CC24DD24F50131965F01E8E142
:1002AC00F0E0AE16BF0614F0AA24BB240E94E704AB
:1002BC0083D03AC00E94B0040E94D004D1F4F30160
:1002CC0031973F010024601470046CF4EBE3F0E010
:1002DC003F01F20131972F010024401450041CF40B
:1002EC00E7E1F0E02F015A924A927A926A92D40195
:1002FC001AC00E94DD041197B9F4F60131976F0111
:10030C000024C014D0046CF4EBE3F0E06F01F501B1
:10031C0031975F010024A014B0041CF4E7E1F0E075
:10032C005F010E94E70448D0E991EFBFF991E99190
:10033C00B991A9919991899179916991F9901990B3
:10034C0009901895E0E0EABBEBBBE7BBE8BBE1E04A
:10035C00E4BBE0E0E5BBE1BBE2BBE3BFE2BFECBF6B
:10036C00EFBDE3E0EEBDEEECEDBDEFEFECBDE0E09C
:10037C00E7BDE6BDEBBDEABDE9BDE8BDE2BDE5BD4F
:10038C00E4BDE3BDE5E0E9BFEBB7E06EEBBFEFE04A
:10039C00E5BFE0E4E4BFE0EEEABFE0E0EAB9E0E8A4
:1003AC00E8B9E0E0E0BFE6B9EDB9E6BFA8E00E942D
:1003BC0069047894FFCFFFCFBA93AA932F97E0E00C
:1003CC00EA93A0E00E9419040E94DD04EAE00E9476
:1003DC005905E859FD4FDF010E945804E0E0EA930B
:1003EC00A1E00E941904FE01FA93EA93EAE8F0E016
:1003FC00FA93EA93AF89B88D0E94F004AB8DBC8D53
:10040C000E94F904AD8DBE8D0E94F004A9A1BAA181
:10041C000E94F904ABA1BCA10E94F004AFA1B8A545
:10042C000E94F90488E10E94C5036C96DE010E94CB
:10043C005804E0E0F0E0659608950E94A20500E003
:10044C0010E020E030E000E010E00E94E2040E1723
:10045C001F07BCF4F801A8E8B2E00E9402054E1692
:10046C005F0641F4F801ACE9B2E00E940205E61522
:10047C00F70509F003C0A89A21E030E00F5F1F4F89
:10048C00E4CF022E032A09F4A898E0E0F0E00E94E1
:10049C00A90524960895BA93AA931A930A93AA814C
:1004AC00BB8112960E949305309759F1AA81BB81AA
:1004BC0014960E9493058F01309761F00230E0E0B2
:1004CC001E0798F0F80131978F01AA81BB81149611
:1004DC00ED93FC93AA81BB811296ED91FD9131961F
:1004EC00FE93EE933197AC81A083AA81BB810E94CD
:1004FC009305FF232AF0ED91FD913196FE93EE9337
:10050C0006C0AA81BB81EFEFFFEFED93FC9319813D
:10051C00088125960895BA93AA9326970E94A00560
:10052C0010E0AC85BD85E0E0F0E0ED93FC93EA894A
:10053C00FB893196EA8BFB8B3197E4912E2FE030BF
:10054C0009F415C1E12FE03039F4253211F411E032
:10055C0002C00E9409050AC1E130A9F4253219F440
:10056C000E94090502C112E040E000E02D3211F4B6
:10057C0001E0FCC02B3211F44BE2F8C0203211F434
:10058C0040E2F4C002C0E23039F450E013E0203312
:10059C0011F40068EBC003C0E33009F0E7C020336E
:1005AC0010F02A3308F007C0AAE05A9F502DE22F12
:1005BC00E0535E0FDBC0E22FE33649F40E941005D6
:1005CC00E889F989A481AA930E941605CEC0E33765
:1005DC0041F40E9410050E941C050E9497041E2FD6
:1005EC000AC0E03761F40E9410050E941C050E94AD
:1005FC00A3041E2F086002600F7730E034C0E4368D
:10060C0011F0E93611F4046002C0E53731F4E4E589
:10061C00F0E0EE83FF8315E00CC0E83511F40860C0
:10062C0003C0E83709F0A1C0EEE5F0E0EE83FF83EC
:10063C0014E002FF14C00E9410050E942605AB8531
:10064C00AA233AF4EA85FB850E945005EA87FB87CA
:10065C004DE2403011F01F5F01C00B7F04C00E94BF
:10066C0010050E94260500FD11C0151778F407FF30
:10067C0008C002FF04C00B7F242F115001C020E3DF
:10068C0001C020E20E9409055150EFCF312F01FF2C
:10069C0017C03030A1F003FF06C0EE81FF81259119
:1006AC00EE83FF8305C0AE81BF812D91AE83BF83E6
:1006BC000E940905503009F051503150EACF4BC01F
:1006CC0020E3EE81FF810E949705E887F987EE8190
:1006DC00FF813296EE83FF83E885F985AA85BB8579
:1006EC00AE17BF0750F02F5FA885B985EA85FB854B
:1006FC00EA1BFB0BEA87FB87EFCF2A3328F003FFBB
:10070C0002C0295F01C0295D04FD1AC0213320F409
:10071C00A885B985119709F409C0531710F000FF8B
:10072C0001C013C020E207FF0BC020E3006102FFF1
:10073C0007C00B7F4A930E941605503009F05150A8
:10074C000E940905503009F051503150A885B985E7
:10075C00129708F0B5CF00FF08C0503031F051505F
:10076C00E0E2EA930E941605F8CF10E0E0CEAC85EB
:10077C00BD850E9493050E94A70564960895FF927B
:10078C00F82E26970E94A2050E942E05309719F488
:10079C00EFEFFFEF23C0DE0116960E944C058D0192
:1007AC000E942E05EE83FF83E0E0E887E987DE01F7
:1007BC001A960E944C050E949305FA93EA931A9399
:1007CC000A93E1E5F2E0FA93EA93DE011A96A3DECE
:1007DC009F01AE81BF81E0E0EC93F9010E94A90575
:1007EC002A96FF900895AA93EBB3EF70AE2FE88191
:1007FC00E07FEA2BEBBB82E08A95F1F7DA9A82E094
:10080C008A95F1F7DA9882E08A95F1F788C0AA9375
:10081C00A881E9DFE881E295E883A881E4DF81E142
:10082C008A95F1F77CC0AA93E881F0E0EE54FD4F75
:10083C00E081A981AE0FEBDFE981E093B602E8819C
:10084C00E093B70222960895A2E00E943505ACE031
:10085C00DEDFA1E00E943505E0E0E093B702E09313
:10086C00B6020895AA93A881AA3031F0E091B8029B
:10087C00A091B602AE1760F0E0E0EA93A091B70247
:10088C00AF5FA093B702CFDFA881AA3009F447C0AD
:10089C00E091B602EF5FE093B602D89AA881B7DF79
:1008AC00D8983DC0BA93AA931A93A981BA81ED91B5
:1008BC00A983BA831E2FE03019F0A12FD3DFF5CF17
:1008CC00188123960895AA93EAB3E06FEABBD29AF3
:1008DC00D09AD19ADA98D898D998E881E093B8024E
:1008EC00E058E093B402E881E054E093B502A4E14F
:1008FC00B0E00E9442050E943B050E943B050E940D
:10090C003B05A0E270DF81E28A95F1F7A8E27FDF78
:10091C00A4E07DDFA5E87BDFA6E079DF95DF2196FB
:10092C000895BA93AA93A991B991EE27FF276D91D7
:10093C00662311F03196FBCF0895BA93AA93AA2798
:10094C00BB27E991F9910590002011F01196FBCF8E
:10095C00FD0108950A921A92FA926A937A938A93F5
:10096C009A93AA93BA93EA93FA93EFB7EA930895FA
:10097C00F30131963F01ECE3F0E06E167F0608952B
:10098C0066247724F20131962F01E8E1F0E04E164F
:10099C005F060895E0918602F091870230970895E2
:1009AC005A924A927A926A92D4010C94E201A091E2
:1009BC008602B09187020895E091B002F091B102E5
:1009CC000895BA92AA92DA92CA92A0916002B0915A
:1009DC0061020895EAE0F0E00E9472050E9454055D
:1009EC000E949B050895EAE0F0E00E9477050E94C2
:1009FC0054050E949B050895EE0FFF1FAE0FBF1FFD
:100A0C000E94930508952A93AD85BE85EF85F889DC
:100A1C0009950895E889F9893497E88BF98B08953D
:100A2C00AD85BE85EF85F88909950895A889B989A2
:100A3C0014960E949305EE83FF83AE81BF810895C7
:100A4C00A889B98914960E949305EA87FB870895B3
:100A5C00DE011C960E944C050E94930508950E948D
:100A6C000D04A3E0B0E00C944205A0E30E94F9034E
:100A7C0081E28A95F1F70895109639F08AEF90E0AB
:100A8C000197F1F7A8951197C9F708950024AF0DB8
:100A9C00B01D0895F195E195F04008956F2F660F04
:100AAC00660B762F08956E2F6A9FF0016B9FF00DE9
:100ABC0008950024112490E1AA0FBB1F001C111CE7
:100ACC000E1A1F0A18F40E0E1F1E01C0A1609A9573
:100ADC0099F7FD01D001089512D0EBDF0EF4DADFA7
:100AEC000895E894B7FF04C0A095B095119668944A
:100AFC00F7FDD0DFDEDFFD010EF4CCDF0895E894C6
:100B0C00F7FF02C0C7DF6894B7FF06C0A095B09589
:100B1C00119600F8039400FA0895ED91FC91119749
:100B2C0008950590F491E02D08957A936A93FA93C1
:100B3C00EA9308955A934A933A932A931A930A93F1
:100B4C0008955D814C813B812A811981088108952A
:00000001FF
